{
  "_format": "hh-sol-artifact-1",
  "contractName": "Payment_system",
  "sourceName": "contracts/Payment_system.sol",
  "abi": [
    {
      "inputs": [],
      "stateMutability": "nonpayable",
      "type": "constructor"
    },
    {
      "anonymous": false,
      "inputs": [
        {
          "indexed": true,
          "internalType": "uint256",
          "name": "_amount",
          "type": "uint256"
        },
        {
          "indexed": true,
          "internalType": "string",
          "name": "testId",
          "type": "string"
        },
        {
          "indexed": true,
          "internalType": "address",
          "name": "_from",
          "type": "address"
        }
      ],
      "name": "Deposit",
      "type": "event"
    },
    {
      "anonymous": false,
      "inputs": [
        {
          "indexed": false,
          "internalType": "uint256",
          "name": "_amount",
          "type": "uint256"
        },
        {
          "indexed": true,
          "internalType": "string",
          "name": "testId",
          "type": "string"
        },
        {
          "indexed": true,
          "internalType": "address",
          "name": "_from",
          "type": "address"
        }
      ],
      "name": "DistributeEvent",
      "type": "event"
    },
    {
      "anonymous": false,
      "inputs": [
        {
          "indexed": true,
          "internalType": "string",
          "name": "testId",
          "type": "string"
        },
        {
          "indexed": false,
          "internalType": "string",
          "name": "resultHash",
          "type": "string"
        }
      ],
      "name": "Publish",
      "type": "event"
    },
    {
      "inputs": [
        {
          "internalType": "address",
          "name": "",
          "type": "address"
        }
      ],
      "name": "balances",
      "outputs": [
        {
          "internalType": "uint256",
          "name": "",
          "type": "uint256"
        }
      ],
      "stateMutability": "view",
      "type": "function"
    },
    {
      "inputs": [
        {
          "internalType": "string",
          "name": "testId",
          "type": "string"
        },
        {
          "internalType": "address",
          "name": "receiver",
          "type": "address"
        },
        {
          "internalType": "uint256",
          "name": "newBalance",
          "type": "uint256"
        }
      ],
      "name": "depositFrom",
      "outputs": [
        {
          "internalType": "uint256",
          "name": "",
          "type": "uint256"
        }
      ],
      "stateMutability": "payable",
      "type": "function"
    },
    {
      "inputs": [],
      "name": "getBalance",
      "outputs": [
        {
          "internalType": "uint256",
          "name": "",
          "type": "uint256"
        }
      ],
      "stateMutability": "view",
      "type": "function"
    },
    {
      "inputs": [
        {
          "internalType": "address",
          "name": "user",
          "type": "address"
        }
      ],
      "name": "getUserBalance",
      "outputs": [
        {
          "internalType": "uint256",
          "name": "",
          "type": "uint256"
        }
      ],
      "stateMutability": "view",
      "type": "function"
    },
    {
      "inputs": [
        {
          "internalType": "string",
          "name": "testId",
          "type": "string"
        },
        {
          "internalType": "string",
          "name": "resultHash",
          "type": "string"
        }
      ],
      "name": "publishResults",
      "outputs": [],
      "stateMutability": "payable",
      "type": "function"
    },
    {
      "inputs": [
        {
          "internalType": "string",
          "name": "",
          "type": "string"
        }
      ],
      "name": "results",
      "outputs": [
        {
          "internalType": "string",
          "name": "",
          "type": "string"
        }
      ],
      "stateMutability": "view",
      "type": "function"
    },
    {
      "inputs": [],
      "name": "selfDestruct",
      "outputs": [],
      "stateMutability": "nonpayable",
      "type": "function"
    },
    {
      "inputs": [],
      "name": "userWithdraw",
      "outputs": [],
      "stateMutability": "nonpayable",
      "type": "function"
    },
    {
      "inputs": [
        {
          "internalType": "uint256",
          "name": "_amount",
          "type": "uint256"
        }
      ],
      "name": "withdraw",
      "outputs": [],
      "stateMutability": "nonpayable",
      "type": "function"
    },
    {
      "stateMutability": "payable",
      "type": "receive"
    }
  ],
  "bytecode": "0x608060405234801561001057600080fd5b50336000806101000a81548173ffffffffffffffffffffffffffffffffffffffff021916908373ffffffffffffffffffffffffffffffffffffffff160217905550610e8e806100606000396000f3fe60806040526004361061008a5760003560e01c80634b13d17d116100595780634b13d17d1461016457806356e13f1c146101a157806367ec00c0146101bd5780639cb8a26a146101ed578063a646f9ad1461020457610091565b806312065fe01461009657806327e235e3146100c15780632e1a7d4d146100fe578063477348921461012757610091565b3661009157005b600080fd5b3480156100a257600080fd5b506100ab61021b565b6040516100b89190610b6b565b60405180910390f35b3480156100cd57600080fd5b506100e860048036038101906100e3919061088a565b610223565b6040516100f59190610b6b565b60405180910390f35b34801561010a57600080fd5b50610125600480360381019061012091906109cc565b61023b565b005b34801561013357600080fd5b5061014e6004803603810190610149919061088a565b610313565b60405161015b9190610b6b565b60405180910390f35b34801561017057600080fd5b5061018b6004803603810190610186919061091f565b61035c565b6040516101989190610b09565b60405180910390f35b6101bb60048036038101906101b69190610960565b610412565b005b6101d760048036038101906101d291906108b3565b6104f1565b6040516101e49190610b6b565b60405180910390f35b3480156101f957600080fd5b50610202610627565b005b34801561021057600080fd5b506102196106ce565b005b600047905090565b60016020528060005260406000206000915090505481565b60008054906101000a900473ffffffffffffffffffffffffffffffffffffffff1673ffffffffffffffffffffffffffffffffffffffff163373ffffffffffffffffffffffffffffffffffffffff16146102c9576040517f08c379a00000000000000000000000000000000000000000000000000000000081526004016102c090610b2b565b60405180910390fd5b3373ffffffffffffffffffffffffffffffffffffffff166108fc829081150290604051600060405180830381858888f1935050505015801561030f573d6000803e3d6000fd5b5050565b6000600160008373ffffffffffffffffffffffffffffffffffffffff1673ffffffffffffffffffffffffffffffffffffffff168152602001908152602001600020549050919050565b600281805160208101820180518482526020830160208501208183528095505050505050600091509050805461039190610cd7565b80601f01602080910402602001604051908101604052809291908181526020018280546103bd90610cd7565b801561040a5780601f106103df5761010080835404028352916020019161040a565b820191906000526020600020905b8154815290600101906020018083116103ed57829003601f168201915b505050505081565b60008054906101000a900473ffffffffffffffffffffffffffffffffffffffff1673ffffffffffffffffffffffffffffffffffffffff163373ffffffffffffffffffffffffffffffffffffffff16146104a0576040517f08c379a000000000000000000000000000000000000000000000000000000000815260040161049790610b2b565b60405180910390fd5b816040516104ae9190610af2565b60405180910390207fdf2b7b8318eaa0a18e896a176f032eb212e5dd6f863fa258e58b17ecee08fce2826040516104e59190610b09565b60405180910390a25050565b6000600160008473ffffffffffffffffffffffffffffffffffffffff1673ffffffffffffffffffffffffffffffffffffffff168152602001908152602001600020548261053e9190610c03565b600160008573ffffffffffffffffffffffffffffffffffffffff1673ffffffffffffffffffffffffffffffffffffffff168152602001908152602001600020819055503373ffffffffffffffffffffffffffffffffffffffff1685856040516105a8929190610ad9565b6040518091039020347f8021c613011d1fbf57ecbf0e6176883614600dc98ef378bb275fd32db34e86de60405160405180910390a4600160008473ffffffffffffffffffffffffffffffffffffffff1673ffffffffffffffffffffffffffffffffffffffff168152602001908152602001600020549050949350505050565b60008054906101000a900473ffffffffffffffffffffffffffffffffffffffff1673ffffffffffffffffffffffffffffffffffffffff163373ffffffffffffffffffffffffffffffffffffffff16146106b5576040517f08c379a00000000000000000000000000000000000000000000000000000000081526004016106ac90610b4b565b60405180910390fd5b3373ffffffffffffffffffffffffffffffffffffffff16ff5b6000600160003373ffffffffffffffffffffffffffffffffffffffff1673ffffffffffffffffffffffffffffffffffffffff1681526020019081526020016000205490506000811161071f57600080fd5b6000600160003373ffffffffffffffffffffffffffffffffffffffff1673ffffffffffffffffffffffffffffffffffffffff168152602001908152602001600020819055503373ffffffffffffffffffffffffffffffffffffffff166108fc829081150290604051600060405180830381858888f193505050501580156107aa573d6000803e3d6000fd5b5050565b60006107c16107bc84610bab565b610b86565b9050828152602081018484840111156107d957600080fd5b6107e4848285610c95565b509392505050565b6000813590506107fb81610e2a565b92915050565b60008083601f84011261081357600080fd5b8235905067ffffffffffffffff81111561082c57600080fd5b60208301915083600182028301111561084457600080fd5b9250929050565b600082601f83011261085c57600080fd5b813561086c8482602086016107ae565b91505092915050565b60008135905061088481610e41565b92915050565b60006020828403121561089c57600080fd5b60006108aa848285016107ec565b91505092915050565b600080600080606085870312156108c957600080fd5b600085013567ffffffffffffffff8111156108e357600080fd5b6108ef87828801610801565b94509450506020610902878288016107ec565b925050604061091387828801610875565b91505092959194509250565b60006020828403121561093157600080fd5b600082013567ffffffffffffffff81111561094b57600080fd5b6109578482850161084b565b91505092915050565b6000806040838503121561097357600080fd5b600083013567ffffffffffffffff81111561098d57600080fd5b6109998582860161084b565b925050602083013567ffffffffffffffff8111156109b657600080fd5b6109c28582860161084b565b9150509250929050565b6000602082840312156109de57600080fd5b60006109ec84828501610875565b91505092915050565b6000610a018385610bf8565b9350610a0e838584610c95565b82840190509392505050565b6000610a2582610bdc565b610a2f8185610be7565b9350610a3f818560208601610ca4565b610a4881610dc7565b840191505092915050565b6000610a5e82610bdc565b610a688185610bf8565b9350610a78818560208601610ca4565b80840191505092915050565b6000610a91601a83610be7565b9150610a9c82610dd8565b602082019050919050565b6000610ab4600983610be7565b9150610abf82610e01565b602082019050919050565b610ad381610c8b565b82525050565b6000610ae68284866109f5565b91508190509392505050565b6000610afe8284610a53565b915081905092915050565b60006020820190508181036000830152610b238184610a1a565b905092915050565b60006020820190508181036000830152610b4481610a84565b9050919050565b60006020820190508181036000830152610b6481610aa7565b9050919050565b6000602082019050610b806000830184610aca565b92915050565b6000610b90610ba1565b9050610b9c8282610d09565b919050565b6000604051905090565b600067ffffffffffffffff821115610bc657610bc5610d98565b5b610bcf82610dc7565b9050602081019050919050565b600081519050919050565b600082825260208201905092915050565b600081905092915050565b6000610c0e82610c8b565b9150610c1983610c8b565b9250827fffffffffffffffffffffffffffffffffffffffffffffffffffffffffffffffff03821115610c4e57610c4d610d3a565b5b828201905092915050565b6000610c6482610c6b565b9050919050565b600073ffffffffffffffffffffffffffffffffffffffff82169050919050565b6000819050919050565b82818337600083830152505050565b60005b83811015610cc2578082015181840152602081019050610ca7565b83811115610cd1576000848401525b50505050565b60006002820490506001821680610cef57607f821691505b60208210811415610d0357610d02610d69565b5b50919050565b610d1282610dc7565b810181811067ffffffffffffffff82111715610d3157610d30610d98565b5b80604052505050565b7f4e487b7100000000000000000000000000000000000000000000000000000000600052601160045260246000fd5b7f4e487b7100000000000000000000000000000000000000000000000000000000600052602260045260246000fd5b7f4e487b7100000000000000000000000000000000000000000000000000000000600052604160045260246000fd5b6000601f19601f8301169050919050565b7f556e617574686f72697a656420666f7220746869732063616c6c000000000000600082015250565b7f4e6f74206f776e65720000000000000000000000000000000000000000000000600082015250565b610e3381610c59565b8114610e3e57600080fd5b50565b610e4a81610c8b565b8114610e5557600080fd5b5056fea264697066735822122044007469d81727a663ca3257297b867587707f874a01ef4839fffecb93a1bc8764736f6c63430008040033",
  "linkReferences": {},
  "deployedLinkReferences": {}
}