{
  "_format": "hh-sol-artifact-1",
  "contractName": "Payment_system",
  "sourceName": "contracts/Payment_system.sol",
  "abi": [
    {
      "inputs": [],
      "stateMutability": "nonpayable",
      "type": "constructor"
    },
    {
      "anonymous": false,
      "inputs": [
        {
          "indexed": true,
          "internalType": "uint256",
          "name": "_amount",
          "type": "uint256"
        },
        {
          "indexed": true,
          "internalType": "string",
          "name": "testId",
          "type": "string"
        },
        {
          "indexed": true,
          "internalType": "address",
          "name": "_from",
          "type": "address"
        }
      ],
      "name": "Deposit",
      "type": "event"
    },
    {
      "anonymous": false,
      "inputs": [
        {
          "indexed": false,
          "internalType": "uint256",
          "name": "_amount",
          "type": "uint256"
        },
        {
          "indexed": true,
          "internalType": "string",
          "name": "testId",
          "type": "string"
        },
        {
          "indexed": true,
          "internalType": "address",
          "name": "_from",
          "type": "address"
        }
      ],
      "name": "DistributeEvent",
      "type": "event"
    },
    {
      "anonymous": false,
      "inputs": [
        {
          "indexed": true,
          "internalType": "string",
          "name": "testId",
          "type": "string"
        },
        {
          "indexed": false,
          "internalType": "string",
          "name": "resultHash",
          "type": "string"
        }
      ],
      "name": "Publish",
      "type": "event"
    },
    {
      "inputs": [
        {
          "internalType": "address",
          "name": "",
          "type": "address"
        }
      ],
      "name": "balances",
      "outputs": [
        {
          "internalType": "uint256",
          "name": "",
          "type": "uint256"
        }
      ],
      "stateMutability": "view",
      "type": "function"
    },
    {
      "inputs": [
        {
          "internalType": "string",
          "name": "testId",
          "type": "string"
        },
        {
          "internalType": "address",
          "name": "receiver",
          "type": "address"
        },
        {
          "internalType": "uint256",
          "name": "newBalance",
          "type": "uint256"
        }
      ],
      "name": "depositFrom",
      "outputs": [
        {
          "internalType": "uint256",
          "name": "",
          "type": "uint256"
        }
      ],
      "stateMutability": "payable",
      "type": "function"
    },
    {
      "inputs": [],
      "name": "getBalance",
      "outputs": [
        {
          "internalType": "uint256",
          "name": "",
          "type": "uint256"
        }
      ],
      "stateMutability": "view",
      "type": "function"
    },
    {
      "inputs": [
        {
          "internalType": "address",
          "name": "user",
          "type": "address"
        }
      ],
      "name": "getUserBalance",
      "outputs": [
        {
          "internalType": "uint256",
          "name": "",
          "type": "uint256"
        }
      ],
      "stateMutability": "view",
      "type": "function"
    },
    {
      "inputs": [
        {
          "internalType": "string",
          "name": "testId",
          "type": "string"
        },
        {
          "internalType": "string",
          "name": "resultHash",
          "type": "string"
        }
      ],
      "name": "publishResults",
      "outputs": [],
      "stateMutability": "payable",
      "type": "function"
    },
    {
      "inputs": [
        {
          "internalType": "string",
          "name": "",
          "type": "string"
        }
      ],
      "name": "results",
      "outputs": [
        {
          "internalType": "string",
          "name": "",
          "type": "string"
        }
      ],
      "stateMutability": "view",
      "type": "function"
    },
    {
      "inputs": [],
      "name": "selfDestruct",
      "outputs": [],
      "stateMutability": "nonpayable",
      "type": "function"
    },
    {
      "inputs": [],
      "name": "userWithdraw",
      "outputs": [],
      "stateMutability": "nonpayable",
      "type": "function"
    },
    {
      "inputs": [
        {
          "internalType": "uint256",
          "name": "_amount",
          "type": "uint256"
        }
      ],
      "name": "withdraw",
      "outputs": [],
      "stateMutability": "nonpayable",
      "type": "function"
    },
    {
      "stateMutability": "payable",
      "type": "receive"
    }
  ],
  "bytecode": "0x608060405234801561001057600080fd5b50336000806101000a81548173ffffffffffffffffffffffffffffffffffffffff021916908373ffffffffffffffffffffffffffffffffffffffff160217905550610e00806100606000396000f3fe60806040526004361061008a5760003560e01c80634b13d17d116100595780634b13d17d1461016457806356e13f1c146101a157806367ec00c0146101bd5780639cb8a26a146101ed578063a646f9ad1461020457610091565b806312065fe01461009657806327e235e3146100c15780632e1a7d4d146100fe578063477348921461012757610091565b3661009157005b600080fd5b3480156100a257600080fd5b506100ab61021b565b6040516100b89190610add565b60405180910390f35b3480156100cd57600080fd5b506100e860048036038101906100e391906107fc565b610223565b6040516100f59190610add565b60405180910390f35b34801561010a57600080fd5b506101256004803603810190610120919061093e565b61023b565b005b34801561013357600080fd5b5061014e600480360381019061014991906107fc565b610313565b60405161015b9190610add565b60405180910390f35b34801561017057600080fd5b5061018b60048036038101906101869190610891565b61035c565b6040516101989190610a7b565b60405180910390f35b6101bb60048036038101906101b691906108d2565b610412565b005b6101d760048036038101906101d29190610825565b610463565b6040516101e49190610add565b60405180910390f35b3480156101f957600080fd5b50610202610599565b005b34801561021057600080fd5b50610219610640565b005b600047905090565b60016020528060005260406000206000915090505481565b60008054906101000a900473ffffffffffffffffffffffffffffffffffffffff1673ffffffffffffffffffffffffffffffffffffffff163373ffffffffffffffffffffffffffffffffffffffff16146102c9576040517f08c379a00000000000000000000000000000000000000000000000000000000081526004016102c090610a9d565b60405180910390fd5b3373ffffffffffffffffffffffffffffffffffffffff166108fc829081150290604051600060405180830381858888f1935050505015801561030f573d6000803e3d6000fd5b5050565b6000600160008373ffffffffffffffffffffffffffffffffffffffff1673ffffffffffffffffffffffffffffffffffffffff168152602001908152602001600020549050919050565b600281805160208101820180518482526020830160208501208183528095505050505050600091509050805461039190610c49565b80601f01602080910402602001604051908101604052809291908181526020018280546103bd90610c49565b801561040a5780601f106103df5761010080835404028352916020019161040a565b820191906000526020600020905b8154815290600101906020018083116103ed57829003601f168201915b505050505081565b816040516104209190610a64565b60405180910390207fdf2b7b8318eaa0a18e896a176f032eb212e5dd6f863fa258e58b17ecee08fce2826040516104579190610a7b565b60405180910390a25050565b6000600160008473ffffffffffffffffffffffffffffffffffffffff1673ffffffffffffffffffffffffffffffffffffffff16815260200190815260200160002054826104b09190610b75565b600160008573ffffffffffffffffffffffffffffffffffffffff1673ffffffffffffffffffffffffffffffffffffffff168152602001908152602001600020819055503373ffffffffffffffffffffffffffffffffffffffff16858560405161051a929190610a4b565b6040518091039020347f8021c613011d1fbf57ecbf0e6176883614600dc98ef378bb275fd32db34e86de60405160405180910390a4600160008473ffffffffffffffffffffffffffffffffffffffff1673ffffffffffffffffffffffffffffffffffffffff168152602001908152602001600020549050949350505050565b60008054906101000a900473ffffffffffffffffffffffffffffffffffffffff1673ffffffffffffffffffffffffffffffffffffffff163373ffffffffffffffffffffffffffffffffffffffff1614610627576040517f08c379a000000000000000000000000000000000000000000000000000000000815260040161061e90610abd565b60405180910390fd5b3373ffffffffffffffffffffffffffffffffffffffff16ff5b6000600160003373ffffffffffffffffffffffffffffffffffffffff1673ffffffffffffffffffffffffffffffffffffffff1681526020019081526020016000205490506000811161069157600080fd5b6000600160003373ffffffffffffffffffffffffffffffffffffffff1673ffffffffffffffffffffffffffffffffffffffff168152602001908152602001600020819055503373ffffffffffffffffffffffffffffffffffffffff166108fc829081150290604051600060405180830381858888f1935050505015801561071c573d6000803e3d6000fd5b5050565b600061073361072e84610b1d565b610af8565b90508281526020810184848401111561074b57600080fd5b610756848285610c07565b509392505050565b60008135905061076d81610d9c565b92915050565b60008083601f84011261078557600080fd5b8235905067ffffffffffffffff81111561079e57600080fd5b6020830191508360018202830111156107b657600080fd5b9250929050565b600082601f8301126107ce57600080fd5b81356107de848260208601610720565b91505092915050565b6000813590506107f681610db3565b92915050565b60006020828403121561080e57600080fd5b600061081c8482850161075e565b91505092915050565b6000806000806060858703121561083b57600080fd5b600085013567ffffffffffffffff81111561085557600080fd5b61086187828801610773565b945094505060206108748782880161075e565b9250506040610885878288016107e7565b91505092959194509250565b6000602082840312156108a357600080fd5b600082013567ffffffffffffffff8111156108bd57600080fd5b6108c9848285016107bd565b91505092915050565b600080604083850312156108e557600080fd5b600083013567ffffffffffffffff8111156108ff57600080fd5b61090b858286016107bd565b925050602083013567ffffffffffffffff81111561092857600080fd5b610934858286016107bd565b9150509250929050565b60006020828403121561095057600080fd5b600061095e848285016107e7565b91505092915050565b60006109738385610b6a565b9350610980838584610c07565b82840190509392505050565b600061099782610b4e565b6109a18185610b59565b93506109b1818560208601610c16565b6109ba81610d39565b840191505092915050565b60006109d082610b4e565b6109da8185610b6a565b93506109ea818560208601610c16565b80840191505092915050565b6000610a03601a83610b59565b9150610a0e82610d4a565b602082019050919050565b6000610a26600983610b59565b9150610a3182610d73565b602082019050919050565b610a4581610bfd565b82525050565b6000610a58828486610967565b91508190509392505050565b6000610a7082846109c5565b915081905092915050565b60006020820190508181036000830152610a95818461098c565b905092915050565b60006020820190508181036000830152610ab6816109f6565b9050919050565b60006020820190508181036000830152610ad681610a19565b9050919050565b6000602082019050610af26000830184610a3c565b92915050565b6000610b02610b13565b9050610b0e8282610c7b565b919050565b6000604051905090565b600067ffffffffffffffff821115610b3857610b37610d0a565b5b610b4182610d39565b9050602081019050919050565b600081519050919050565b600082825260208201905092915050565b600081905092915050565b6000610b8082610bfd565b9150610b8b83610bfd565b9250827fffffffffffffffffffffffffffffffffffffffffffffffffffffffffffffffff03821115610bc057610bbf610cac565b5b828201905092915050565b6000610bd682610bdd565b9050919050565b600073ffffffffffffffffffffffffffffffffffffffff82169050919050565b6000819050919050565b82818337600083830152505050565b60005b83811015610c34578082015181840152602081019050610c19565b83811115610c43576000848401525b50505050565b60006002820490506001821680610c6157607f821691505b60208210811415610c7557610c74610cdb565b5b50919050565b610c8482610d39565b810181811067ffffffffffffffff82111715610ca357610ca2610d0a565b5b80604052505050565b7f4e487b7100000000000000000000000000000000000000000000000000000000600052601160045260246000fd5b7f4e487b7100000000000000000000000000000000000000000000000000000000600052602260045260246000fd5b7f4e487b7100000000000000000000000000000000000000000000000000000000600052604160045260246000fd5b6000601f19601f8301169050919050565b7f556e617574686f72697a656420666f7220746869732063616c6c000000000000600082015250565b7f4e6f74206f776e65720000000000000000000000000000000000000000000000600082015250565b610da581610bcb565b8114610db057600080fd5b50565b610dbc81610bfd565b8114610dc757600080fd5b5056fea26469706673582212203e69d4262840453832f687dfdf563f0a4685186d59598efb5e50e05e745ad79564736f6c63430008040033",
  "linkReferences": {},
  "deployedLinkReferences": {}
}